{
  "contractName": "HelloWorld",
  "abi": [
    {
      "constant": true,
      "inputs": [],
      "name": "message",
      "outputs": [
        {
          "name": "",
          "type": "string"
        }
      ],
      "payable": false,
      "stateMutability": "view",
      "type": "function"
    },
    {
      "inputs": [],
      "payable": false,
      "stateMutability": "nonpayable",
      "type": "constructor"
    },
    {
      "anonymous": false,
      "inputs": [
        {
          "indexed": false,
          "name": "oldMessage",
          "type": "string"
        },
        {
          "indexed": false,
          "name": "newMessage",
          "type": "string"
        },
        {
          "indexed": false,
          "name": "timestamp",
          "type": "uint256"
        }
      ],
      "name": "LogMessageChanged",
      "type": "event"
    },
    {
      "constant": false,
      "inputs": [
        {
          "name": "_newMessage",
          "type": "string"
        },
        {
          "name": "_timestamp",
          "type": "uint256"
        }
      ],
      "name": "changeMessage",
      "outputs": [],
      "payable": false,
      "stateMutability": "nonpayable",
      "type": "function"
    }
  ],
  "bytecode": "0x608060405234801561001057600080fd5b506040518060400160405280601081526020017f48656c6c6f2c20576f726c6420212121000000000000000000000000000000008152506000908051906020019061005c929190610062565b50610107565b828054600181600116156101000203166002900490600052602060002090601f016020900481019282601f106100a357805160ff19168380011785556100d1565b828001600101855582156100d1579182015b828111156100d05782518255916020019190600101906100b5565b5b5090506100de91906100e2565b5090565b61010491905b808211156101005760008160009055506001016100e8565b5090565b90565b6104c7806101166000396000f3fe608060405234801561001057600080fd5b50600436106100365760003560e01c806306a7c5591461003b578063e21f37ce14610100575b600080fd5b6100fe6004803603604081101561005157600080fd5b810190808035906020019064010000000081111561006e57600080fd5b82018360208201111561008057600080fd5b803590602001918460018302840111640100000000831117156100a257600080fd5b91908080601f016020809104026020016040519081016040528093929190818152602001838380828437600081840152601f19601f82011690508083019250505050505050919291929080359060200190929190505050610183565b005b61010861034f565b6040518080602001828103825283818151815260200191508051906020019080838360005b8381101561014857808201518184015260208101905061012d565b50505050905090810190601f1680156101755780820380516001836020036101000a031916815260200191505b509250505060405180910390f35b606060008054600181600116156101000203166002900480601f01602080910402602001604051908101604052809291908181526020018280546001816001161561010002031660029004801561021b5780601f106101f05761010080835404028352916020019161021b565b820191906000526020600020905b8154815290600101906020018083116101fe57829003601f168201915b5050505050905082600090805190602001906102389291906103ed565b507f181f8f95f4405c7ea1291c9569b4622a64e382da0135d4bdc33ff0418657861b818484604051808060200180602001848152602001838103835286818151815260200191508051906020019080838360005b838110156102a757808201518184015260208101905061028c565b50505050905090810190601f1680156102d45780820380516001836020036101000a031916815260200191505b50838103825285818151815260200191508051906020019080838360005b8381101561030d5780820151818401526020810190506102f2565b50505050905090810190601f16801561033a5780820380516001836020036101000a031916815260200191505b509550505050505060405180910390a1505050565b60008054600181600116156101000203166002900480601f0160208091040260200160405190810160405280929190818152602001828054600181600116156101000203166002900480156103e55780601f106103ba576101008083540402835291602001916103e5565b820191906000526020600020905b8154815290600101906020018083116103c857829003601f168201915b505050505081565b828054600181600116156101000203166002900490600052602060002090601f016020900481019282601f1061042e57805160ff191683800117855561045c565b8280016001018555821561045c579182015b8281111561045b578251825591602001919060010190610440565b5b509050610469919061046d565b5090565b61048f91905b8082111561048b576000816000905550600101610473565b5090565b9056fea265627a7a72305820b55e0058a3b547a6f221d7db8412bb640586eed693aa8135fe3d446f5980e49f64736f6c634300050a0032",
  "source": "pragma solidity 0.5.10;\n\ncontract HelloWorld {\n    string public message;\n\n    event LogMessageChanged(\n        string oldMessage,\n        string newMessage,\n        uint256 timestamp\n    );\n\n    constructor() public {\n        message = \"Hello, World !!!\";\n    }\n\n    /**\n     * Function to change the message\n     * @param _newMessage {string} The new message\n     */\n    function changeMessage(string memory _newMessage, uint256 _timestamp)\n        public\n    {\n        string memory oldMessage = message;\n        message = _newMessage;\n        // solhint-disable-next-line mark-callable-contracts\n        emit LogMessageChanged(oldMessage, _newMessage, _timestamp);\n    }\n}\n",
  "sourcePath": "/home/balajipachai/Desktop/mastering_ethereum/explore-incubed-protocol/server/contracts/HelloWorld.sol",
  "compiler": {
    "name": "solc",
    "version": "0.5.10+commit.5a6ea5b1.Emscripten.clang"
  },
  "schemaVersion": "3.2.0",
  "updatedAt": "2020-07-16T20:24:52.421Z",
  "networkType": "ethereum",
  "devdoc": {
    "methods": {
      "changeMessage(string,uint256)": {
        "params": {
          "_newMessage": "{string} The new message"
        }
      }
    }
  },
  "userdoc": {
    "methods": {
      "changeMessage(string,uint256)": {
        "notice": "Function to change the message"
      }
    }
  }
}