{
  "contractName": "NodeRegistryData",
  "abi": [
    {
      "constant": true,
      "inputs": [],
      "name": "registryId",
      "outputs": [
        {
          "name": "",
          "type": "bytes32"
        }
      ],
      "payable": false,
      "stateMutability": "view",
      "type": "function"
    },
    {
      "constant": true,
      "inputs": [],
      "name": "supportedToken",
      "outputs": [
        {
          "name": "",
          "type": "address"
        }
      ],
      "payable": false,
      "stateMutability": "view",
      "type": "function"
    },
    {
      "constant": true,
      "inputs": [
        {
          "name": "",
          "type": "address"
        }
      ],
      "name": "signerIndex",
      "outputs": [
        {
          "name": "lockedTime",
          "type": "uint64"
        },
        {
          "name": "owner",
          "type": "address"
        },
        {
          "name": "stage",
          "type": "uint256"
        },
        {
          "name": "depositAmount",
          "type": "uint256"
        },
        {
          "name": "index",
          "type": "uint256"
        }
      ],
      "payable": false,
      "stateMutability": "view",
      "type": "function"
    },
    {
      "constant": true,
      "inputs": [
        {
          "name": "",
          "type": "uint256"
        }
      ],
      "name": "nodes",
      "outputs": [
        {
          "name": "url",
          "type": "string"
        },
        {
          "name": "deposit",
          "type": "uint256"
        },
        {
          "name": "registerTime",
          "type": "uint64"
        },
        {
          "name": "props",
          "type": "uint192"
        },
        {
          "name": "weight",
          "type": "uint64"
        },
        {
          "name": "signer",
          "type": "address"
        },
        {
          "name": "proofHash",
          "type": "bytes32"
        }
      ],
      "payable": false,
      "stateMutability": "view",
      "type": "function"
    },
    {
      "constant": true,
      "inputs": [],
      "name": "timeout",
      "outputs": [
        {
          "name": "",
          "type": "uint256"
        }
      ],
      "payable": false,
      "stateMutability": "view",
      "type": "function"
    },
    {
      "constant": true,
      "inputs": [],
      "name": "ownerContract",
      "outputs": [
        {
          "name": "",
          "type": "address"
        }
      ],
      "payable": false,
      "stateMutability": "view",
      "type": "function"
    },
    {
      "constant": true,
      "inputs": [
        {
          "name": "",
          "type": "address"
        },
        {
          "name": "",
          "type": "bytes32"
        }
      ],
      "name": "convictMapping",
      "outputs": [
        {
          "name": "",
          "type": "uint256"
        }
      ],
      "payable": false,
      "stateMutability": "view",
      "type": "function"
    },
    {
      "constant": true,
      "inputs": [
        {
          "name": "",
          "type": "bytes32"
        }
      ],
      "name": "urlIndex",
      "outputs": [
        {
          "name": "used",
          "type": "bool"
        },
        {
          "name": "signer",
          "type": "address"
        }
      ],
      "payable": false,
      "stateMutability": "view",
      "type": "function"
    },
    {
      "constant": true,
      "inputs": [],
      "name": "VERSION",
      "outputs": [
        {
          "name": "",
          "type": "uint256"
        }
      ],
      "payable": false,
      "stateMutability": "view",
      "type": "function"
    },
    {
      "inputs": [],
      "payable": false,
      "stateMutability": "nonpayable",
      "type": "constructor"
    },
    {
      "anonymous": false,
      "inputs": [
        {
          "indexed": false,
          "name": "url",
          "type": "string"
        },
        {
          "indexed": false,
          "name": "props",
          "type": "uint256"
        },
        {
          "indexed": false,
          "name": "signer",
          "type": "address"
        },
        {
          "indexed": false,
          "name": "deposit",
          "type": "uint256"
        }
      ],
      "name": "LogNodeRegistered",
      "type": "event"
    },
    {
      "anonymous": false,
      "inputs": [
        {
          "indexed": false,
          "name": "url",
          "type": "string"
        },
        {
          "indexed": false,
          "name": "signer",
          "type": "address"
        }
      ],
      "name": "LogNodeRemoved",
      "type": "event"
    },
    {
      "anonymous": false,
      "inputs": [
        {
          "indexed": false,
          "name": "url",
          "type": "string"
        },
        {
          "indexed": false,
          "name": "props",
          "type": "uint256"
        },
        {
          "indexed": false,
          "name": "signer",
          "type": "address"
        },
        {
          "indexed": false,
          "name": "deposit",
          "type": "uint256"
        }
      ],
      "name": "LogNodeUpdated",
      "type": "event"
    },
    {
      "anonymous": false,
      "inputs": [
        {
          "indexed": false,
          "name": "signer",
          "type": "address"
        },
        {
          "indexed": false,
          "name": "oldOwner",
          "type": "address"
        },
        {
          "indexed": false,
          "name": "newOwner",
          "type": "address"
        }
      ],
      "name": "LogOwnershipChanged",
      "type": "event"
    },
    {
      "anonymous": false,
      "inputs": [
        {
          "indexed": false,
          "name": "nodeOwner",
          "type": "address"
        },
        {
          "indexed": false,
          "name": "amount",
          "type": "uint256"
        }
      ],
      "name": "LogDepositReturned",
      "type": "event"
    },
    {
      "constant": false,
      "inputs": [
        {
          "name": "_signer",
          "type": "address"
        }
      ],
      "name": "adminRemoveNodeFromRegistry",
      "outputs": [],
      "payable": false,
      "stateMutability": "nonpayable",
      "type": "function"
    },
    {
      "constant": false,
      "inputs": [
        {
          "name": "_newLogic",
          "type": "address"
        }
      ],
      "name": "adminSetLogic",
      "outputs": [
        {
          "name": "",
          "type": "bool"
        }
      ],
      "payable": false,
      "stateMutability": "nonpayable",
      "type": "function"
    },
    {
      "constant": false,
      "inputs": [
        {
          "name": "_signer",
          "type": "address"
        },
        {
          "name": "_newDeposit",
          "type": "uint256"
        }
      ],
      "name": "adminSetNodeDeposit",
      "outputs": [
        {
          "name": "",
          "type": "bool"
        }
      ],
      "payable": false,
      "stateMutability": "nonpayable",
      "type": "function"
    },
    {
      "constant": false,
      "inputs": [
        {
          "name": "_signer",
          "type": "address"
        },
        {
          "name": "_stage",
          "type": "uint256"
        }
      ],
      "name": "adminSetStage",
      "outputs": [
        {
          "name": "",
          "type": "bool"
        }
      ],
      "payable": false,
      "stateMutability": "nonpayable",
      "type": "function"
    },
    {
      "constant": false,
      "inputs": [
        {
          "name": "_newToken",
          "type": "address"
        }
      ],
      "name": "adminSetSupportedToken",
      "outputs": [
        {
          "name": "",
          "type": "bool"
        }
      ],
      "payable": false,
      "stateMutability": "nonpayable",
      "type": "function"
    },
    {
      "constant": false,
      "inputs": [
        {
          "name": "_newTimeout",
          "type": "uint256"
        }
      ],
      "name": "adminSetTimeout",
      "outputs": [
        {
          "name": "",
          "type": "bool"
        }
      ],
      "payable": false,
      "stateMutability": "nonpayable",
      "type": "function"
    },
    {
      "constant": false,
      "inputs": [
        {
          "name": "_to",
          "type": "address"
        },
        {
          "name": "_amount",
          "type": "uint256"
        }
      ],
      "name": "adminTransferDeposit",
      "outputs": [
        {
          "name": "",
          "type": "bool"
        }
      ],
      "payable": false,
      "stateMutability": "nonpayable",
      "type": "function"
    },
    {
      "constant": false,
      "inputs": [
        {
          "name": "_hash",
          "type": "bytes32"
        },
        {
          "name": "_caller",
          "type": "address"
        }
      ],
      "name": "setConvict",
      "outputs": [],
      "payable": false,
      "stateMutability": "nonpayable",
      "type": "function"
    },
    {
      "constant": false,
      "inputs": [
        {
          "name": "_url",
          "type": "string"
        },
        {
          "name": "_props",
          "type": "uint192"
        },
        {
          "name": "_signer",
          "type": "address"
        },
        {
          "name": "_weight",
          "type": "uint64"
        },
        {
          "name": "_owner",
          "type": "address"
        },
        {
          "name": "_deposit",
          "type": "uint256"
        },
        {
          "name": "_stage",
          "type": "uint256"
        }
      ],
      "name": "registerNodeFor",
      "outputs": [
        {
          "name": "",
          "type": "bool"
        }
      ],
      "payable": false,
      "stateMutability": "nonpayable",
      "type": "function"
    },
    {
      "constant": false,
      "inputs": [
        {
          "name": "_signer",
          "type": "address"
        },
        {
          "name": "_newOwner",
          "type": "address"
        }
      ],
      "name": "transferOwnership",
      "outputs": [
        {
          "name": "",
          "type": "bool"
        }
      ],
      "payable": false,
      "stateMutability": "nonpayable",
      "type": "function"
    },
    {
      "constant": false,
      "inputs": [
        {
          "name": "_signer",
          "type": "address"
        }
      ],
      "name": "unregisteringNode",
      "outputs": [
        {
          "name": "",
          "type": "bool"
        }
      ],
      "payable": false,
      "stateMutability": "nonpayable",
      "type": "function"
    },
    {
      "constant": false,
      "inputs": [
        {
          "name": "_signer",
          "type": "address"
        },
        {
          "name": "_url",
          "type": "string"
        },
        {
          "name": "_props",
          "type": "uint192"
        },
        {
          "name": "_weight",
          "type": "uint64"
        },
        {
          "name": "_deposit",
          "type": "uint256"
        }
      ],
      "name": "updateNode",
      "outputs": [
        {
          "name": "",
          "type": "bool"
        }
      ],
      "payable": false,
      "stateMutability": "nonpayable",
      "type": "function"
    },
    {
      "constant": true,
      "inputs": [
        {
          "name": "_index",
          "type": "uint256"
        }
      ],
      "name": "getIn3NodeInformation",
      "outputs": [
        {
          "components": [
            {
              "name": "url",
              "type": "string"
            },
            {
              "name": "deposit",
              "type": "uint256"
            },
            {
              "name": "registerTime",
              "type": "uint64"
            },
            {
              "name": "props",
              "type": "uint192"
            },
            {
              "name": "weight",
              "type": "uint64"
            },
            {
              "name": "signer",
              "type": "address"
            },
            {
              "name": "proofHash",
              "type": "bytes32"
            }
          ],
          "name": "",
          "type": "tuple"
        }
      ],
      "payable": false,
      "stateMutability": "view",
      "type": "function"
    },
    {
      "constant": true,
      "inputs": [
        {
          "name": "_signer",
          "type": "address"
        }
      ],
      "name": "getSignerInformation",
      "outputs": [
        {
          "components": [
            {
              "name": "lockedTime",
              "type": "uint64"
            },
            {
              "name": "owner",
              "type": "address"
            },
            {
              "name": "stage",
              "type": "uint256"
            },
            {
              "name": "depositAmount",
              "type": "uint256"
            },
            {
              "name": "index",
              "type": "uint256"
            }
          ],
          "name": "",
          "type": "tuple"
        }
      ],
      "payable": false,
      "stateMutability": "view",
      "type": "function"
    },
    {
      "constant": true,
      "inputs": [
        {
          "name": "_signer",
          "type": "address"
        }
      ],
      "name": "getNodeInfromationBySigner",
      "outputs": [
        {
          "components": [
            {
              "name": "url",
              "type": "string"
            },
            {
              "name": "deposit",
              "type": "uint256"
            },
            {
              "name": "registerTime",
              "type": "uint64"
            },
            {
              "name": "props",
              "type": "uint192"
            },
            {
              "name": "weight",
              "type": "uint64"
            },
            {
              "name": "signer",
              "type": "address"
            },
            {
              "name": "proofHash",
              "type": "bytes32"
            }
          ],
          "name": "",
          "type": "tuple"
        }
      ],
      "payable": false,
      "stateMutability": "view",
      "type": "function"
    },
    {
      "constant": true,
      "inputs": [],
      "name": "totalNodes",
      "outputs": [
        {
          "name": "",
          "type": "uint256"
        }
      ],
      "payable": false,
      "stateMutability": "view",
      "type": "function"
    },
    {
      "constant": false,
      "inputs": [
        {
          "name": "_signer",
          "type": "address"
        },
        {
          "components": [
            {
              "name": "lockedTime",
              "type": "uint64"
            },
            {
              "name": "owner",
              "type": "address"
            },
            {
              "name": "stage",
              "type": "uint256"
            },
            {
              "name": "depositAmount",
              "type": "uint256"
            },
            {
              "name": "index",
              "type": "uint256"
            }
          ],
          "name": "_si",
          "type": "tuple"
        }
      ],
      "name": "adminSetSignerInfo",
      "outputs": [
        {
          "name": "",
          "type": "bool"
        }
      ],
      "payable": false,
      "stateMutability": "nonpayable",
      "type": "function"
    }
  ],
  "bytecode": "0x60806040523480156200001157600080fd5b503060014303406040516020016200002b929190620000ce565b604051602081830303815290604052805190602001206001819055506234bc0060028190555033600460006101000a81548173ffffffffffffffffffffffffffffffffffffffff021916908373ffffffffffffffffffffffffffffffffffffffff1602179055506200017b565b620000ad620000a782620000fe565b6200013c565b82525050565b620000c8620000c28262000112565b62000150565b82525050565b6000620000dc828562000098565b601482019150620000ee8284620000b3565b6020820191508190509392505050565b60006200010b826200011c565b9050919050565b6000819050919050565b600073ffffffffffffffffffffffffffffffffffffffff82169050919050565b600062000149826200015a565b9050919050565b6000819050919050565b600062000167826200016e565b9050919050565b60008160601b9050919050565b614654806200018b6000396000f3fe608060405234801561001057600080fd5b506004361061018e5760003560e01c80636cea2d81116100de5780639592d42411610097578063c2db4dda11610071578063c2db4dda1461054f578063de7dda741461056b578063e9a0af811461059c578063ffa1ad74146105cc5761018e565b80639592d424146104d1578063a82a2653146104ef578063addc2bb41461051f5761018e565b80636cea2d81146103d55780636d4354211461040557806370dea79a146104355780637400d073146104535780637f74ac1514610483578063912f137e146104a15761018e565b80631b401f651161014b5780633dd703a8116101255780633dd703a8146103155780633fafa911146103455780635d7611b91461037557806363c099f7146103a55761018e565b80631b401f65146102935780631c53c280146102c35780633026b65b146102f95761018e565b806304ef898d1461019357806306a8ea88146101b15780630ce02d8f146101e15780630ee0599c1461021157806314cfd6e91461022f5780631a91a0ab1461025f575b600080fd5b61019b6105ea565b6040516101a89190614037565b60405180910390f35b6101cb60048036036101c69190810190613898565b6105f0565b6040516101d8919061428d565b60405180910390f35b6101fb60048036036101f6919081019061357c565b6107f7565b604051610208919061428d565b60405180910390f35b610219610a40565b6040516102269190614052565b60405180910390f35b610249600480360361024491908101906137de565b610a66565b6040516102569190613ff3565b60405180910390f35b6102796004803603610274919081019061357c565b610f52565b60405161028a9594939291906142e5565b60405180910390f35b6102ad60048036036102a8919081019061357c565b610fbc565b6040516102ba9190613ff3565b60405180910390f35b6102dd60048036036102d89190810190613898565b6112ac565b6040516102f097969594939291906140bb565b60405180910390f35b610313600480360361030e9190810190613779565b6113ff565b005b61032f600480360361032a91908101906136af565b6114e8565b60405161033c9190613ff3565b60405180910390f35b61035f600480360361035a91908101906136eb565b61165b565b60405161036c9190613ff3565b60405180910390f35b61038f600480360361038a919081019061357c565b6117e5565b60405161039c91906142af565b60405180910390f35b6103bf60048036036103ba919081019061361d565b6118e4565b6040516103cc9190613ff3565b60405180910390f35b6103ef60048036036103ea91908101906136eb565b611ff7565b6040516103fc9190613ff3565b60405180910390f35b61041f600480360361041a91908101906135a5565b6120e0565b60405161042c9190613ff3565b60405180910390f35b61043d612262565b60405161044a91906142ca565b60405180910390f35b61046d600480360361046891908101906136eb565b612268565b60405161047a9190613ff3565b60405180910390f35b61048b6124bd565b6040516104989190613f78565b60405180910390f35b6104bb60048036036104b6919081019061357c565b6124e3565b6040516104c89190613ff3565b60405180910390f35b6104d961262f565b6040516104e691906142ca565b60405180910390f35b610509600480360361050491908101906135e1565b61263b565b60405161051691906142ca565b60405180910390f35b61053960048036036105349190810190613898565b612660565b6040516105469190613ff3565b60405180910390f35b6105696004803603610564919081019061357c565b612702565b005b61058560048036036105809190810190613750565b61289d565b60405161059392919061400e565b60405180910390f35b6105b660048036036105b191908101906137b5565b6128ee565b6040516105c39190613ff3565b60405180910390f35b6105d4612a3a565b6040516105e191906142ca565b60405180910390f35b60015481565b6105f86130ac565b6000828154811061060557fe5b90600052602060002090600502016040518060e0016040529081600082018054600181600116156101000203166002900480601f0160208091040260200160405190810160405280929190818152602001828054600181600116156101000203166002900480156106b75780601f1061068c576101008083540402835291602001916106b7565b820191906000526020600020905b81548152906001019060200180831161069a57829003601f168201915b50505050508152602001600182015481526020016002820160009054906101000a900467ffffffffffffffff1667ffffffffffffffff1667ffffffffffffffff1681526020016002820160089054906101000a900477ffffffffffffffffffffffffffffffffffffffffffffffff1677ffffffffffffffffffffffffffffffffffffffffffffffff1677ffffffffffffffffffffffffffffffffffffffffffffffff1681526020016003820160009054906101000a900467ffffffffffffffff1667ffffffffffffffff1667ffffffffffffffff1681526020016003820160089054906101000a900473ffffffffffffffffffffffffffffffffffffffff1673ffffffffffffffffffffffffffffffffffffffff1673ffffffffffffffffffffffffffffffffffffffff1681526020016004820154815250509050919050565b6107ff6130ac565b6000600560008473ffffffffffffffffffffffffffffffffffffffff1673ffffffffffffffffffffffffffffffffffffffff168152602001908152602001600020600301548154811061084e57fe5b90600052602060002090600502016040518060e0016040529081600082018054600181600116156101000203166002900480601f0160208091040260200160405190810160405280929190818152602001828054600181600116156101000203166002900480156109005780601f106108d557610100808354040283529160200191610900565b820191906000526020600020905b8154815290600101906020018083116108e357829003601f168201915b50505050508152602001600182015481526020016002820160009054906101000a900467ffffffffffffffff1667ffffffffffffffff1667ffffffffffffffff1681526020016002820160089054906101000a900477ffffffffffffffffffffffffffffffffffffffffffffffff1677ffffffffffffffffffffffffffffffffffffffffffffffff1677ffffffffffffffffffffffffffffffffffffffffffffffff1681526020016003820160009054906101000a900467ffffffffffffffff1667ffffffffffffffff1667ffffffffffffffff1681526020016003820160089054906101000a900473ffffffffffffffffffffffffffffffffffffffff1673ffffffffffffffffffffffffffffffffffffffff1673ffffffffffffffffffffffffffffffffffffffff1681526020016004820154815250509050919050565b600360009054906101000a900473ffffffffffffffffffffffffffffffffffffffff1681565b60003373ffffffffffffffffffffffffffffffffffffffff16600460009054906101000a900473ffffffffffffffffffffffffffffffffffffffff1673ffffffffffffffffffffffffffffffffffffffff1614610af8576040517f08c379a0000000000000000000000000000000000000000000000000000000008152600401610aef906141cd565b60405180910390fd5b60008989604051610b0a929190613edc565b604051809103902090506000600560008973ffffffffffffffffffffffffffffffffffffffff1673ffffffffffffffffffffffffffffffffffffffff16815260200190815260200160002090506000805490508160030181905550858160000160086101000a81548173ffffffffffffffffffffffffffffffffffffffff021916908373ffffffffffffffffffffffffffffffffffffffff160217905550838160010181905550610bb96130ac565b8b8b8080601f016020809104026020016040519081016040528093929190818152602001838380828437600081840152601f19601f82011690508083019250505050505050816000018190525089816060019077ffffffffffffffffffffffffffffffffffffffffffffffff16908177ffffffffffffffffffffffffffffffffffffffffffffffff1681525050888160a0019073ffffffffffffffffffffffffffffffffffffffff16908173ffffffffffffffffffffffffffffffffffffffff16815250508581602001818152505042816040019067ffffffffffffffff16908167ffffffffffffffff168152505087816080019067ffffffffffffffff16908167ffffffffffffffff1681525050610cd181612a44565b8160c0018181525050600081908060018154018082558091505090600182039060005260206000209060050201600090919290919091506000820151816000019080519060200190610d24929190613130565b506020820151816001015560408201518160020160006101000a81548167ffffffffffffffff021916908367ffffffffffffffff16021790555060608201518160020160086101000a81548177ffffffffffffffffffffffffffffffffffffffffffffffff021916908377ffffffffffffffffffffffffffffffffffffffffffffffff16021790555060808201518160030160006101000a81548167ffffffffffffffff021916908367ffffffffffffffff16021790555060a08201518160030160086101000a81548173ffffffffffffffffffffffffffffffffffffffff021916908373ffffffffffffffffffffffffffffffffffffffff16021790555060c08201518160040155505050610e386131b0565b600181600001901515908115158152505089816020019073ffffffffffffffffffffffffffffffffffffffff16908173ffffffffffffffffffffffffffffffffffffffff1681525050806006600086815260200190815260200160002060008201518160000160006101000a81548160ff02191690831515021790555060208201518160000160016101000a81548173ffffffffffffffffffffffffffffffffffffffff021916908373ffffffffffffffffffffffffffffffffffffffff1602179055509050507f1ca262a77ac17942055c2ff991000041865fc4fe608b39c1f3c10731996565108d8d8d8d8b604051610f3695949392919061406d565b60405180910390a1600194505050505098975050505050505050565b60056020528060005260406000206000915090508060000160009054906101000a900467ffffffffffffffff16908060000160089054906101000a900473ffffffffffffffffffffffffffffffffffffffff16908060010154908060020154908060030154905085565b60003373ffffffffffffffffffffffffffffffffffffffff16600460009054906101000a900473ffffffffffffffffffffffffffffffffffffffff1673ffffffffffffffffffffffffffffffffffffffff161461104e576040517f08c379a0000000000000000000000000000000000000000000000000000000008152600401611045906141cd565b60405180910390fd5b6000600560008473ffffffffffffffffffffffffffffffffffffffff1673ffffffffffffffffffffffffffffffffffffffff16815260200190815260200160002090506110996130ac565b60008260030154815481106110aa57fe5b90600052602060002090600502016040518060e0016040529081600082018054600181600116156101000203166002900480601f01602080910402602001604051908101604052809291908181526020018280546001816001161561010002031660029004801561115c5780601f106111315761010080835404028352916020019161115c565b820191906000526020600020905b81548152906001019060200180831161113f57829003601f168201915b50505050508152602001600182015481526020016002820160009054906101000a900467ffffffffffffffff1667ffffffffffffffff1667ffffffffffffffff1681526020016002820160089054906101000a900477ffffffffffffffffffffffffffffffffffffffffffffffff1677ffffffffffffffffffffffffffffffffffffffffffffffff1677ffffffffffffffffffffffffffffffffffffffffffffffff1681526020016003820160009054906101000a900467ffffffffffffffff1667ffffffffffffffff1667ffffffffffffffff1681526020016003820160089054906101000a900473ffffffffffffffffffffffffffffffffffffffff1673ffffffffffffffffffffffffffffffffffffffff1673ffffffffffffffffffffffffffffffffffffffff16815260200160048201548152505090506112a18282612a96565b600192505050919050565b600081815481106112b957fe5b9060005260206000209060050201600091509050806000018054600181600116156101000203166002900480601f0160208091040260200160405190810160405280929190818152602001828054600181600116156101000203166002900480156113655780601f1061133a57610100808354040283529160200191611365565b820191906000526020600020905b81548152906001019060200180831161134857829003601f168201915b5050505050908060010154908060020160009054906101000a900467ffffffffffffffff16908060020160089054906101000a900477ffffffffffffffffffffffffffffffffffffffffffffffff16908060030160009054906101000a900467ffffffffffffffff16908060030160089054906101000a900473ffffffffffffffffffffffffffffffffffffffff16908060040154905087565b3373ffffffffffffffffffffffffffffffffffffffff16600460009054906101000a900473ffffffffffffffffffffffffffffffffffffffff1673ffffffffffffffffffffffffffffffffffffffff161461148f576040517f08c379a0000000000000000000000000000000000000000000000000000000008152600401611486906141cd565b60405180910390fd5b43600760008373ffffffffffffffffffffffffffffffffffffffff1673ffffffffffffffffffffffffffffffffffffffff1681526020019081526020016000206000848152602001908152602001600020819055505050565b60003373ffffffffffffffffffffffffffffffffffffffff16600460009054906101000a900473ffffffffffffffffffffffffffffffffffffffff1673ffffffffffffffffffffffffffffffffffffffff161461157a576040517f08c379a0000000000000000000000000000000000000000000000000000000008152600401611571906141cd565b60405180910390fd5b81600560008573ffffffffffffffffffffffffffffffffffffffff1673ffffffffffffffffffffffffffffffffffffffff16815260200190815260200160002060008201518160000160006101000a81548167ffffffffffffffff021916908367ffffffffffffffff16021790555060208201518160000160086101000a81548173ffffffffffffffffffffffffffffffffffffffff021916908373ffffffffffffffffffffffffffffffffffffffff1602179055506040820151816001015560608201518160020155608082015181600301559050506001905092915050565b60003373ffffffffffffffffffffffffffffffffffffffff16600460009054906101000a900473ffffffffffffffffffffffffffffffffffffffff1673ffffffffffffffffffffffffffffffffffffffff16146116ed576040517f08c379a00000000000000000000000000000000000000000000000000000000081526004016116e4906141cd565b60405180910390fd5b600360009054906101000a900473ffffffffffffffffffffffffffffffffffffffff1673ffffffffffffffffffffffffffffffffffffffff1663a9059cbb84846040518363ffffffff1660e01b815260040161174a929190613fca565b602060405180830381600087803b15801561176457600080fd5b505af1158015611778573d6000803e3d6000fd5b505050506040513d601f19601f8201168201806040525061179c9190810190613727565b6117db576040517f08c379a00000000000000000000000000000000000000000000000000000000081526004016117d2906141ad565b60405180910390fd5b6001905092915050565b6117ed6131e2565b600560008373ffffffffffffffffffffffffffffffffffffffff1673ffffffffffffffffffffffffffffffffffffffff1681526020019081526020016000206040518060a00160405290816000820160009054906101000a900467ffffffffffffffff1667ffffffffffffffff1667ffffffffffffffff1681526020016000820160089054906101000a900473ffffffffffffffffffffffffffffffffffffffff1673ffffffffffffffffffffffffffffffffffffffff1673ffffffffffffffffffffffffffffffffffffffff16815260200160018201548152602001600282015481526020016003820154815250509050919050565b60003373ffffffffffffffffffffffffffffffffffffffff16600460009054906101000a900473ffffffffffffffffffffffffffffffffffffffff1673ffffffffffffffffffffffffffffffffffffffff1614611976576040517f08c379a000000000000000000000000000000000000000000000000000000000815260040161196d906141cd565b60405180910390fd5b61197e6131e2565b600560008973ffffffffffffffffffffffffffffffffffffffff1673ffffffffffffffffffffffffffffffffffffffff1681526020019081526020016000206040518060a00160405290816000820160009054906101000a900467ffffffffffffffff1667ffffffffffffffff1667ffffffffffffffff1681526020016000820160089054906101000a900473ffffffffffffffffffffffffffffffffffffffff1673ffffffffffffffffffffffffffffffffffffffff1673ffffffffffffffffffffffffffffffffffffffff16815260200160018201548152602001600282015481526020016003820154815250509050600080826080015181548110611a8257fe5b9060005260206000209060050201905060008888604051611aa4929190613edc565b60405180910390209050600082600001604051611ac19190613ef5565b60405180910390209050808214611c90576006600083815260200190815260200160002060000160009054906101000a900460ff1615611b36576040517f08c379a0000000000000000000000000000000000000000000000000000000008152600401611b2d906141ed565b60405180910390fd5b611b3e6131b0565b60018160000190151590811515815250508360030160089054906101000a900473ffffffffffffffffffffffffffffffffffffffff16816020019073ffffffffffffffffffffffffffffffffffffffff16908173ffffffffffffffffffffffffffffffffffffffff1681525050806006600085815260200190815260200160002060008201518160000160006101000a81548160ff02191690831515021790555060208201518160000160016101000a81548173ffffffffffffffffffffffffffffffffffffffff021916908373ffffffffffffffffffffffffffffffffffffffff1602179055509050508a8a856000019190611c3c929190613231565b5060066000838152602001908152602001600020600080820160006101000a81549060ff02191690556000820160016101000a81549073ffffffffffffffffffffffffffffffffffffffff02191690555050505b82600101548614611ca5578583600101819055505b8260020160089054906101000a900477ffffffffffffffffffffffffffffffffffffffffffffffff1677ffffffffffffffffffffffffffffffffffffffffffffffff168877ffffffffffffffffffffffffffffffffffffffffffffffff1614611d5457878360020160086101000a81548177ffffffffffffffffffffffffffffffffffffffffffffffff021916908377ffffffffffffffffffffffffffffffffffffffffffffffff1602179055505b8260030160009054906101000a900467ffffffffffffffff1667ffffffffffffffff168767ffffffffffffffff1614611db357868360030160006101000a81548167ffffffffffffffff021916908367ffffffffffffffff1602179055505b611f99836040518060e0016040529081600082018054600181600116156101000203166002900480601f016020809104026020016040519081016040528092919081815260200182805460018160011615610100020316600290048015611e5b5780601f10611e3057610100808354040283529160200191611e5b565b820191906000526020600020905b815481529060010190602001808311611e3e57829003601f168201915b50505050508152602001600182015481526020016002820160009054906101000a900467ffffffffffffffff1667ffffffffffffffff1667ffffffffffffffff1681526020016002820160089054906101000a900477ffffffffffffffffffffffffffffffffffffffffffffffff1677ffffffffffffffffffffffffffffffffffffffffffffffff1677ffffffffffffffffffffffffffffffffffffffffffffffff1681526020016003820160009054906101000a900467ffffffffffffffff1667ffffffffffffffff1667ffffffffffffffff1681526020016003820160089054906101000a900473ffffffffffffffffffffffffffffffffffffffff1673ffffffffffffffffffffffffffffffffffffffff1673ffffffffffffffffffffffffffffffffffffffff168152602001600482015481525050612a44565b83600401819055507f19149f5697dd17986237a17af2606dd1db47143ad31215d628afb240b5c2422e83600001898d8660010154604051611fdd9493929190614161565b60405180910390a160019450505050509695505050505050565b60003373ffffffffffffffffffffffffffffffffffffffff16600460009054906101000a900473ffffffffffffffffffffffffffffffffffffffff1673ffffffffffffffffffffffffffffffffffffffff1614612089576040517f08c379a0000000000000000000000000000000000000000000000000000000008152600401612080906141cd565b60405180910390fd5b6000600560008573ffffffffffffffffffffffffffffffffffffffff1673ffffffffffffffffffffffffffffffffffffffff1681526020019081526020016000209050828160010181905550600191505092915050565b60003373ffffffffffffffffffffffffffffffffffffffff16600460009054906101000a900473ffffffffffffffffffffffffffffffffffffffff1673ffffffffffffffffffffffffffffffffffffffff1614612172576040517f08c379a0000000000000000000000000000000000000000000000000000000008152600401612169906141cd565b60405180910390fd5b6000600560008573ffffffffffffffffffffffffffffffffffffffff1673ffffffffffffffffffffffffffffffffffffffff16815260200190815260200160002090507fc9c065a583ca07c50dabe212e03f5c8f67ac75a99544c771e7222650481ea35b848260000160089054906101000a900473ffffffffffffffffffffffffffffffffffffffff168560405161220c93929190613f93565b60405180910390a1828160000160086101000a81548173ffffffffffffffffffffffffffffffffffffffff021916908373ffffffffffffffffffffffffffffffffffffffff160217905550600191505092915050565b60025481565b60003373ffffffffffffffffffffffffffffffffffffffff16600460009054906101000a900473ffffffffffffffffffffffffffffffffffffffff1673ffffffffffffffffffffffffffffffffffffffff16146122fa576040517f08c379a00000000000000000000000000000000000000000000000000000000081526004016122f1906141cd565b60405180910390fd5b6123026131e2565b600560008573ffffffffffffffffffffffffffffffffffffffff1673ffffffffffffffffffffffffffffffffffffffff1681526020019081526020016000206040518060a00160405290816000820160009054906101000a900467ffffffffffffffff1667ffffffffffffffff1667ffffffffffffffff1681526020016000820160089054906101000a900473ffffffffffffffffffffffffffffffffffffffff1673ffffffffffffffffffffffffffffffffffffffff1673ffffffffffffffffffffffffffffffffffffffff1681526020016001820154815260200160028201548152602001600382015481525050905060008082608001518154811061240657fe5b906000526020600020906005020190508473ffffffffffffffffffffffffffffffffffffffff168160030160089054906101000a900473ffffffffffffffffffffffffffffffffffffffff1673ffffffffffffffffffffffffffffffffffffffff16146124a8576040517f08c379a000000000000000000000000000000000000000000000000000000000815260040161249f9061420d565b60405180910390fd5b83816001018190555060019250505092915050565b600460009054906101000a900473ffffffffffffffffffffffffffffffffffffffff1681565b60003373ffffffffffffffffffffffffffffffffffffffff16600460009054906101000a900473ffffffffffffffffffffffffffffffffffffffff1673ffffffffffffffffffffffffffffffffffffffff1614612575576040517f08c379a000000000000000000000000000000000000000000000000000000000815260040161256c906141cd565b60405180910390fd5b600073ffffffffffffffffffffffffffffffffffffffff168273ffffffffffffffffffffffffffffffffffffffff1614156125e5576040517f08c379a00000000000000000000000000000000000000000000000000000000081526004016125dc9061422d565b60405180910390fd5b81600460006101000a81548173ffffffffffffffffffffffffffffffffffffffff021916908373ffffffffffffffffffffffffffffffffffffffff16021790555060019050919050565b60008080549050905090565b6007602052816000526040600020602052806000526040600020600091509150505481565b60003373ffffffffffffffffffffffffffffffffffffffff16600460009054906101000a900473ffffffffffffffffffffffffffffffffffffffff1673ffffffffffffffffffffffffffffffffffffffff16146126f2576040517f08c379a00000000000000000000000000000000000000000000000000000000081526004016126e9906141cd565b60405180910390fd5b8160028190555060019050919050565b3373ffffffffffffffffffffffffffffffffffffffff16600460009054906101000a900473ffffffffffffffffffffffffffffffffffffffff1673ffffffffffffffffffffffffffffffffffffffff1614612792576040517f08c379a0000000000000000000000000000000000000000000000000000000008152600401612789906141cd565b60405180910390fd5b61279a6131e2565b600560008373ffffffffffffffffffffffffffffffffffffffff1673ffffffffffffffffffffffffffffffffffffffff1681526020019081526020016000206040518060a00160405290816000820160009054906101000a900467ffffffffffffffff1667ffffffffffffffff1667ffffffffffffffff1681526020016000820160089054906101000a900473ffffffffffffffffffffffffffffffffffffffff1673ffffffffffffffffffffffffffffffffffffffff1673ffffffffffffffffffffffffffffffffffffffff168152602001600182015481526020016002820154815260200160038201548152505090506128998160800151612ae3565b5050565b60066020528060005260406000206000915090508060000160009054906101000a900460ff16908060000160019054906101000a900473ffffffffffffffffffffffffffffffffffffffff16905082565b60003373ffffffffffffffffffffffffffffffffffffffff16600460009054906101000a900473ffffffffffffffffffffffffffffffffffffffff1673ffffffffffffffffffffffffffffffffffffffff1614612980576040517f08c379a0000000000000000000000000000000000000000000000000000000008152600401612977906141cd565b60405180910390fd5b600073ffffffffffffffffffffffffffffffffffffffff168273ffffffffffffffffffffffffffffffffffffffff1614156129f0576040517f08c379a00000000000000000000000000000000000000000000000000000000081526004016129e79061426d565b60405180910390fd5b81600360006101000a81548173ffffffffffffffffffffffffffffffffffffffff021916908373ffffffffffffffffffffffffffffffffffffffff16021790555060019050919050565b650b2fd2558df581565b600081602001518260400151836060015184608001518560a001518660000151604051602001612a7996959493929190613f0c565b604051602081830303815290604052805190602001209050919050565b60025442018260000160006101000a81548167ffffffffffffffff021916908367ffffffffffffffff16021790555080602001518260020181905550612adf8260030154612ae3565b5050565b6000805490508110612b2a576040517f08c379a0000000000000000000000000000000000000000000000000000000008152600401612b219061424d565b60405180910390fd5b7f78267f80e41fea0cce6d47208671d5c1d990b9fdaefd72a3989de95cde34bc6260008281548110612b5857fe5b906000526020600020906005020160000160008381548110612b7657fe5b906000526020600020906005020160030160089054906101000a900473ffffffffffffffffffffffffffffffffffffffff16604051612bb6929190614131565b60405180910390a160066000808381548110612bce57fe5b9060005260206000209060050201600001604051612bec9190613ef5565b60405180910390208152602001908152602001600020600080820160006101000a81549060ff02191690556000820160016101000a81549073ffffffffffffffffffffffffffffffffffffffff0219169055505060008080549050905060008111612c5357fe5b7fffffffffffffffffffffffffffffffffffffffffffffffffffffffffffffffff60056000808581548110612c8457fe5b906000526020600020906005020160030160089054906101000a900473ffffffffffffffffffffffffffffffffffffffff1673ffffffffffffffffffffffffffffffffffffffff1673ffffffffffffffffffffffffffffffffffffffff16815260200190815260200160002060030181905550612cff6130ac565b60006001830381548110612d0f57fe5b90600052602060002090600502016040518060e0016040529081600082018054600181600116156101000203166002900480601f016020809104026020016040519081016040528092919081815260200182805460018160011615610100020316600290048015612dc15780601f10612d9657610100808354040283529160200191612dc1565b820191906000526020600020905b815481529060010190602001808311612da457829003601f168201915b50505050508152602001600182015481526020016002820160009054906101000a900467ffffffffffffffff1667ffffffffffffffff1667ffffffffffffffff1681526020016002820160089054906101000a900477ffffffffffffffffffffffffffffffffffffffffffffffff1677ffffffffffffffffffffffffffffffffffffffffffffffff1677ffffffffffffffffffffffffffffffffffffffffffffffff1681526020016003820160009054906101000a900467ffffffffffffffff1667ffffffffffffffff1667ffffffffffffffff1681526020016003820160089054906101000a900473ffffffffffffffffffffffffffffffffffffffff1673ffffffffffffffffffffffffffffffffffffffff1673ffffffffffffffffffffffffffffffffffffffff16815260200160048201548152505090508060008481548110612f0a57fe5b90600052602060002090600502016000820151816000019080519060200190612f34929190613130565b506020820151816001015560408201518160020160006101000a81548167ffffffffffffffff021916908367ffffffffffffffff16021790555060608201518160020160086101000a81548177ffffffffffffffffffffffffffffffffffffffffffffffff021916908377ffffffffffffffffffffffffffffffffffffffffffffffff16021790555060808201518160030160006101000a81548167ffffffffffffffff021916908367ffffffffffffffff16021790555060a08201518160030160086101000a81548173ffffffffffffffffffffffffffffffffffffffff021916908373ffffffffffffffffffffffffffffffffffffffff16021790555060c082015181600401559050506000600560008360a0015173ffffffffffffffffffffffffffffffffffffffff1673ffffffffffffffffffffffffffffffffffffffff168152602001908152602001600020905083816003018190555060008054809190600190036130a591906132b1565b5050505050565b6040518060e001604052806060815260200160008152602001600067ffffffffffffffff168152602001600077ffffffffffffffffffffffffffffffffffffffffffffffff168152602001600067ffffffffffffffff168152602001600073ffffffffffffffffffffffffffffffffffffffff168152602001600080191681525090565b828054600181600116156101000203166002900490600052602060002090601f016020900481019282601f1061317157805160ff191683800117855561319f565b8280016001018555821561319f579182015b8281111561319e578251825591602001919060010190613183565b5b5090506131ac91906132e3565b5090565b6040518060400160405280600015158152602001600073ffffffffffffffffffffffffffffffffffffffff1681525090565b6040518060a00160405280600067ffffffffffffffff168152602001600073ffffffffffffffffffffffffffffffffffffffff1681526020016000815260200160008152602001600081525090565b828054600181600116156101000203166002900490600052602060002090601f016020900481019282601f1061327257803560ff19168380011785556132a0565b828001600101855582156132a0579182015b8281111561329f578235825591602001919060010190613284565b5b5090506132ad91906132e3565b5090565b8154818355818111156132de576005028160050283600052602060002091820191016132dd9190613308565b5b505050565b61330591905b808211156133015760008160009055506001016132e9565b5090565b90565b6133cc91905b808211156133c8576000808201600061332791906133cf565b60018201600090556002820160006101000a81549067ffffffffffffffff02191690556002820160086101000a81549077ffffffffffffffffffffffffffffffffffffffffffffffff02191690556003820160006101000a81549067ffffffffffffffff02191690556003820160086101000a81549073ffffffffffffffffffffffffffffffffffffffff021916905560048201600090555060050161330e565b5090565b90565b50805460018160011615610100020316600290046000825580601f106133f55750613414565b601f01602090049060005260206000209081019061341391906132e3565b5b50565b60008135905061342681614570565b92915050565b60008151905061343b81614587565b92915050565b6000813590506134508161459e565b92915050565b600081359050613465816145b5565b92915050565b60008083601f84011261347d57600080fd5b8235905067ffffffffffffffff81111561349657600080fd5b6020830191508360018202830111156134ae57600080fd5b9250929050565b600060a082840312156134c757600080fd5b6134d160a0614338565b905060006134e184828501613567565b60008301525060206134f584828501613417565b602083015250604061350984828501613552565b604083015250606061351d84828501613552565b606083015250608061353184828501613552565b60808301525092915050565b60008135905061354c816145cc565b92915050565b600081359050613561816145e3565b92915050565b600081359050613576816145fa565b92915050565b60006020828403121561358e57600080fd5b600061359c84828501613417565b91505092915050565b600080604083850312156135b857600080fd5b60006135c685828601613417565b92505060206135d785828601613417565b9150509250929050565b600080604083850312156135f457600080fd5b600061360285828601613417565b925050602061361385828601613441565b9150509250929050565b60008060008060008060a0878903121561363657600080fd5b600061364489828a01613417565b965050602087013567ffffffffffffffff81111561366157600080fd5b61366d89828a0161346b565b9550955050604061368089828a0161353d565b935050606061369189828a01613567565b92505060806136a289828a01613552565b9150509295509295509295565b60008060c083850312156136c257600080fd5b60006136d085828601613417565b92505060206136e1858286016134b5565b9150509250929050565b600080604083850312156136fe57600080fd5b600061370c85828601613417565b925050602061371d85828601613552565b9150509250929050565b60006020828403121561373957600080fd5b60006137478482850161342c565b91505092915050565b60006020828403121561376257600080fd5b600061377084828501613441565b91505092915050565b6000806040838503121561378c57600080fd5b600061379a85828601613441565b92505060206137ab85828601613417565b9150509250929050565b6000602082840312156137c757600080fd5b60006137d584828501613456565b91505092915050565b60008060008060008060008060e0898b0312156137fa57600080fd5b600089013567ffffffffffffffff81111561381457600080fd5b6138208b828c0161346b565b985098505060206138338b828c0161353d565b96505060406138448b828c01613417565b95505060606138558b828c01613567565b94505060806138668b828c01613417565b93505060a06138778b828c01613552565b92505060c06138888b828c01613552565b9150509295985092959890939650565b6000602082840312156138aa57600080fd5b60006138b884828501613552565b91505092915050565b6138ca816143d2565b82525050565b6138d9816143d2565b82525050565b6138f06138eb826143d2565b6144e6565b82525050565b6138ff816143e4565b82525050565b61390e816143f0565b82525050565b61391d816143f0565b82525050565b600061392f838561439a565b935061393c8385846144a4565b82840190509392505050565b600081546001811660008114613965576001811461398a576139ce565b607f6002830416613976818761439a565b955060ff19831686528086019350506139ce565b60028204613998818761439a565b95506139a385614365565b60005b828110156139c5578154818901526001820191506020810190506139a6565b82880195505050505b505092915050565b6139df8161446e565b82525050565b60006139f183856143b6565b93506139fe8385846144a4565b613a0783614538565b840190509392505050565b6000613a1d8261438f565b613a2781856143a5565b9350613a378185602086016144b3565b613a4081614538565b840191505092915050565b6000613a568261438f565b613a6081856143b6565b9350613a708185602086016144b3565b613a7981614538565b840191505092915050565b6000613a8f8261438f565b613a9981856143c7565b9350613aa98185602086016144b3565b80840191505092915050565b600081546001811660008114613ad25760018114613af857613b3c565b607f6002830416613ae381876143b6565b955060ff198316865260208601935050613b3c565b60028204613b0681876143b6565b9550613b118561437a565b60005b82811015613b3357815481890152600182019150602081019050613b14565b80880195505050505b505092915050565b6000613b51601b836143b6565b91507f455243323020746f6b656e207472616e73666572206661696c656400000000006000830152602082019050919050565b6000613b91600d836143b6565b91507f6e6f7420746865206f776e6572000000000000000000000000000000000000006000830152602082019050919050565b6000613bd16015836143b6565b91507f75726c20697320616c726561647920696e2075736500000000000000000000006000830152602082019050919050565b6000613c116026836143b6565b91507f6e6f742074686520636f7272656374207369676e6572206f662074686520696e60008301527f332d6e6f646500000000000000000000000000000000000000000000000000006020830152604082019050919050565b6000613c776013836143b6565b91507f6e6f20616464726573732070726f7669646564000000000000000000000000006000830152602082019050919050565b6000613cb7601b836143b6565b91507f696e76616c6964206e6f646520696e6465782070726f766964656400000000006000830152602082019050919050565b6000613cf7600e836143b6565b91507f30783020697320696e76616c69640000000000000000000000000000000000006000830152602082019050919050565b600060e0830160008301518482036000860152613d478282613a12565b9150506020830151613d5c6020860182613e72565b506040830151613d6f6040860182613ea7565b506060830151613d826060860182613e2e565b506080830151613d956080860182613ea7565b5060a0830151613da860a08601826138c1565b5060c0830151613dbb60c0860182613905565b508091505092915050565b60a082016000820151613ddc6000850182613ea7565b506020820151613def60208501826138c1565b506040820151613e026040850182613e72565b506060820151613e156060850182613e72565b506080820151613e286080850182613e72565b50505050565b613e378161442c565b82525050565b613e468161442c565b82525050565b613e5d613e588261442c565b61450a565b82525050565b613e6c81614492565b82525050565b613e7b81614450565b82525050565b613e8a81614450565b82525050565b613ea1613e9c82614450565b61451c565b82525050565b613eb08161445a565b82525050565b613ebf8161445a565b82525050565b613ed6613ed18261445a565b614526565b82525050565b6000613ee9828486613923565b91508190509392505050565b6000613f018284613948565b915081905092915050565b6000613f188289613e90565b602082019150613f288288613ec5565b600882019150613f388287613e4c565b601882019150613f488286613ec5565b600882019150613f5882856138df565b601482019150613f688284613a84565b9150819050979650505050505050565b6000602082019050613f8d60008301846138d0565b92915050565b6000606082019050613fa860008301866138d0565b613fb560208301856138d0565b613fc260408301846138d0565b949350505050565b6000604082019050613fdf60008301856138d0565b613fec6020830184613e81565b9392505050565b600060208201905061400860008301846138f6565b92915050565b600060408201905061402360008301856138f6565b61403060208301846138d0565b9392505050565b600060208201905061404c6000830184613914565b92915050565b600060208201905061406760008301846139d6565b92915050565b600060808201905081810360008301526140888187896139e5565b90506140976020830186613e63565b6140a460408301856138d0565b6140b16060830184613e81565b9695505050505050565b600060e08201905081810360008301526140d5818a613a4b565b90506140e46020830189613e81565b6140f16040830188613eb6565b6140fe6060830187613e3d565b61410b6080830186613eb6565b61411860a08301856138d0565b61412560c0830184613914565b98975050505050505050565b6000604082019050818103600083015261414b8185613ab5565b905061415a60208301846138d0565b9392505050565b6000608082019050818103600083015261417b8187613ab5565b905061418a6020830186613e63565b61419760408301856138d0565b6141a46060830184613e81565b95945050505050565b600060208201905081810360008301526141c681613b44565b9050919050565b600060208201905081810360008301526141e681613b84565b9050919050565b6000602082019050818103600083015261420681613bc4565b9050919050565b6000602082019050818103600083015261422681613c04565b9050919050565b6000602082019050818103600083015261424681613c6a565b9050919050565b6000602082019050818103600083015261426681613caa565b9050919050565b6000602082019050818103600083015261428681613cea565b9050919050565b600060208201905081810360008301526142a78184613d2a565b905092915050565b600060a0820190506142c46000830184613dc6565b92915050565b60006020820190506142df6000830184613e81565b92915050565b600060a0820190506142fa6000830188613eb6565b61430760208301876138d0565b6143146040830186613e81565b6143216060830185613e81565b61432e6080830184613e81565b9695505050505050565b6000604051905081810181811067ffffffffffffffff8211171561435b57600080fd5b8060405250919050565b60008190508160005260206000209050919050565b60008190508160005260206000209050919050565b600081519050919050565b600081905092915050565b600082825260208201905092915050565b600082825260208201905092915050565b600081905092915050565b60006143dd8261440c565b9050919050565b60008115159050919050565b6000819050919050565b6000614405826143d2565b9050919050565b600073ffffffffffffffffffffffffffffffffffffffff82169050919050565b600077ffffffffffffffffffffffffffffffffffffffffffffffff82169050919050565b6000819050919050565b600067ffffffffffffffff82169050919050565b600061447982614480565b9050919050565b600061448b8261440c565b9050919050565b600061449d8261442c565b9050919050565b82818337600083830152505050565b60005b838110156144d15780820151818401526020810190506144b6565b838111156144e0576000848401525b50505050565b60006144f1826144f8565b9050919050565b600061450382614563565b9050919050565b600061451582614556565b9050919050565b6000819050919050565b600061453182614549565b9050919050565b6000601f19601f8301169050919050565b60008160c01b9050919050565b60008160401b9050919050565b60008160601b9050919050565b614579816143d2565b811461458457600080fd5b50565b614590816143e4565b811461459b57600080fd5b50565b6145a7816143f0565b81146145b257600080fd5b50565b6145be816143fa565b81146145c957600080fd5b50565b6145d58161442c565b81146145e057600080fd5b50565b6145ec81614450565b81146145f757600080fd5b50565b6146038161445a565b811461460e57600080fd5b5056fea365627a7a72305820d7d7ec7a64a893dc3e62a37c801fa7662eecbe5ffc4c387a8492815e09503d8f6c6578706572696d656e74616cf564736f6c634300050a0040",
  "source": "/***********************************************************\n * This file is part of the Slock.it IoT Layer.             *\n * The Slock.it IoT Layer contains:                         *\n *   - USN (Universal Sharing Network)                      *\n *   - INCUBED (Trustless INcentivized remote Node Network) *\n ************************************************************\n * Copyright (C) 2016 - 2018 Slock.it GmbH                  *\n * All Rights Reserved.                                     *\n ************************************************************\n * You may use, distribute and modify this code under the   *\n * terms of the license contract you have concluded with    *\n * Slock.it GmbH.                                           *\n * For information about liability, maintenance etc. also   *\n * refer to the contract concluded with Slock.it GmbH.      *\n ************************************************************\n * For more information, please refer to https://slock.it   *\n * For questions, please contact info@slock.it              *\n ***********************************************************/\n\npragma solidity 0.5.10;\npragma experimental ABIEncoderV2;\n\nimport \"./IERC20.sol\";\n\n/// @title Registry for IN3-nodes\ncontract NodeRegistryData {\n    /// node has been registered\n    event LogNodeRegistered(\n        string url,\n        uint256 props,\n        address signer,\n        uint256 deposit\n    );\n\n    /// a Node is removed\n    event LogNodeRemoved(string url, address signer);\n\n    /// a node has been updated\n    event LogNodeUpdated(\n        string url,\n        uint256 props,\n        address signer,\n        uint256 deposit\n    );\n\n    /// the ownership of a node changed\n    event LogOwnershipChanged(\n        address signer,\n        address oldOwner,\n        address newOwner\n    );\n\n    /// a user received its deposit back\n    event LogDepositReturned(address nodeOwner, uint256 amount);\n\n    struct In3Node {\n        string url; /// the url of the node\n        uint256 deposit; /// stored deposit\n        uint64 registerTime; /// timestamp when the node was registered\n        uint192 props; /// a list of properties-flags representing the capabilities of the node\n        uint64 weight; ///  the flag for (future) incentivisation\n        address signer; /// the signer for requests\n        bytes32 proofHash; /// keccak(deposit,timeout,registerTime,props,signer,url)\n    }\n\n    /// information of a in3-node owner\n    struct SignerInformation {\n        uint64 lockedTime; /// timestamp until the deposit of an in3-node can not be withdrawn after the node was removed\n        address owner; /// the owner of the node\n        uint256 stage; /// state of the address\n        uint256 depositAmount; /// amount of deposit to be locked, used only after a node had been removed\n        uint256 index; /// current index-position of the node in the node-array\n    }\n\n    /// information of an url\n    struct UrlInformation {\n        bool used; /// flag whether the url is currently used\n        address signer; /// address of the owner of the url\n    }\n\n    /// node list of incubed nodes\n    In3Node[] public nodes;\n\n    /// id used for signing in3-requests and in order to prevent cross-chain convicts\n    /// in case a fork happens there is the possibility that a node can be convicted on the other fork,\n    /// because they would use the very same registryId. Nevertheless we cannot change the registryId.\n    /// So in case of a fork a node should chose one of the forks and unregister his nodes on the others.\n    /// In this case it is also recommend to not sign requests until the node get his deposits from the forked contracts\n    bytes32 public registryId;\n\n    /// timeout for all nodes until they can receive their deposit after unregistering\n    uint256 public timeout;\n\n    /// tokenContract to be used\n    IERC20 public supportedToken;\n\n    /// add your additional storage here. If you add information before this line you will break in3 nodelist\n\n    /// Logic-contract that is allowed to call certain functions within the smart contract\n    address public ownerContract;\n\n    /// mapping for information of the owner\n    mapping(address => SignerInformation) public signerIndex;\n\n    /// mapping for the information of the url\n    /// can be used to access the SignerInformation-struct\n    mapping(bytes32 => UrlInformation) public urlIndex;\n\n    /// mapping for convicts: sender => convictHash => block number when the convict-tx had been mined)\n    mapping(address => mapping(bytes32 => uint256)) public convictMapping;\n\n    /// version: major minor fork(000) date(yyyy/mm/dd)\n    uint256 public constant VERSION = 12300020190709;\n\n    modifier onlyLogicContract {\n        require(ownerContract == msg.sender, \"not the owner\");\n        _;\n    }\n\n    /// @notice constructor\n    /// @dev cannot be deployed in a genesis block\n    constructor() public {\n        // solium-disable-next-line security/no-block-members\n        registryId = keccak256(\n            abi.encodePacked(address(this), blockhash(block.number - 1))\n        );\n        timeout = 40 days;\n        ownerContract = msg.sender;\n    }\n\n    /// @notice removes an in3-node from the nodeList\n    /// @param _signer the signer-address of the in3-node\n    function adminRemoveNodeFromRegistry(address _signer)\n        external\n        onlyLogicContract\n    {\n        SignerInformation memory si = signerIndex[_signer];\n        _removeNodeInternal(si.index);\n    }\n\n    /// @notice sets the logic-address / owner of the contract\n    /// @dev used to update the corresponding logic contract\n    /// @dev only callable by the current logic contract\n    /// @param _newLogic the new logic-contract / owner\n    /// @return true if successfull\n    function adminSetLogic(address _newLogic)\n        external\n        onlyLogicContract\n        returns (bool)\n    {\n        require(address(_newLogic) != address(0x0), \"no address provided\");\n        ownerContract = _newLogic;\n        return true;\n    }\n\n    /// @notice sets the deposit of the node\n    /// @dev only callable by the logic contract\n    /// @dev used to delete the deposit after being being convicted\n    /// @param _signer the signer for the node\n    /// @param _newDeposit the new deposit\n    /// @return true if successfull\n    function adminSetNodeDeposit(address _signer, uint256 _newDeposit)\n        external\n        onlyLogicContract\n        returns (bool)\n    {\n        SignerInformation memory si = signerIndex[_signer];\n        In3Node storage node = nodes[si.index];\n        require(\n            node.signer == _signer,\n            \"not the correct signer of the in3-node\"\n        );\n        node.deposit = _newDeposit;\n        return true;\n    }\n\n    /// @notice sets the stage of a certain signer\n    /// @dev only callable by the current logic contract\n    /// @param _signer the signer-account for the stage to be set\n    /// @param _stage the new stage\n    /// @return true if successfull\n    function adminSetStage(address _signer, uint256 _stage)\n        external\n        onlyLogicContract\n        returns (bool)\n    {\n        SignerInformation storage si = signerIndex[_signer];\n        si.stage = _stage;\n        return true;\n    }\n\n    /// @notice changes the supported token\n    /// @dev only callable by the current logic contract\n    /// @param _newToken the new token-contract\n    /// @return true if successfull\n    function adminSetSupportedToken(IERC20 _newToken)\n        external\n        onlyLogicContract\n        returns (bool)\n    {\n        require(address(_newToken) != address(0x0), \"0x0 is invalid\");\n        supportedToken = _newToken;\n        return true;\n    }\n\n    /// @notice sets a new timeout for all node until they can recive their deposit\n    /// @dev only callable by the current logic contract\n    /// @param _newTimeout the new timeout\n    /// @return true if successfull\n    function adminSetTimeout(uint256 _newTimeout)\n        external\n        onlyLogicContract\n        returns (bool)\n    {\n        timeout = _newTimeout;\n        return true;\n    }\n\n    /// @notice transfers tokens to an address\n    /// @dev used when returning deposit or rewarding successfull convicts\n    /// @dev only callable by the logic contract\n    /// @param _to the address that shall receive tokens\n    /// @param _amount the amount of tokens to be transfered\n    /// @return true when successfull\n    function adminTransferDeposit(address _to, uint256 _amount)\n        external\n        onlyLogicContract\n        returns (bool)\n    {\n        require(\n            supportedToken.transfer(_to, _amount),\n            \"ERC20 token transfer failed\"\n        );\n        return true;\n    }\n\n    /// @notice writes a value to te convictMapping to be used later for revealConvict in the logic contract\n    /// @param _hash keccak256(wrong blockhash, msg.sender, v, r, s); used to prevent frontrunning.\n    /// @param _caller the address for that called convict in the logic-contract\n    function setConvict(bytes32 _hash, address _caller)\n        external\n        onlyLogicContract\n    {\n        convictMapping[_caller][_hash] = block.number;\n    }\n\n    /// @notice registers a new node in the nodeList\n    /// @dev only callable by the logic contract\n    /// @param _url the url of the node, has to be unique\n    /// @param _props properties of the node\n    /// @param _signer the signer of the in3-node\n    /// @param _weight how many requests per second the node is able to handle\n    /// @param _owner the owner of the node\n    /// @param _deposit the deposit of the in3-node (in erc20 token)\n    /// @param _stage the stage of the in3-node\n    /// @return true if successfull\n    function registerNodeFor(\n        string calldata _url,\n        uint192 _props,\n        address _signer,\n        uint64 _weight,\n        address _owner,\n        uint256 _deposit,\n        uint256 _stage\n    ) external onlyLogicContract returns (bool) {\n        bytes32 urlHash = keccak256(bytes(_url));\n\n        // sets the information of the owner\n        SignerInformation storage si = signerIndex[_signer];\n\n        si.index = nodes.length;\n        si.owner = _owner;\n        si.stage = _stage;\n\n        // add new In3Node\n        In3Node memory m;\n        m.url = _url;\n        m.props = _props;\n        m.signer = _signer;\n        m.deposit = _deposit;\n        // solium-disable-next-line security/no-block-members\n        m.registerTime = uint64(block.timestamp); // solhint-disable-line not-rely-on-time\n        m.weight = _weight;\n\n        m.proofHash = _calcProofHashInternal(m);\n        nodes.push(m);\n\n        // sets the information of the url\n        UrlInformation memory ui;\n        ui.used = true;\n        ui.signer = _signer;\n        urlIndex[urlHash] = ui;\n\n        emit LogNodeRegistered(_url, _props, _signer, _deposit);\n\n        return true;\n    }\n\n    /// @notice changes the ownership of an in3-node\n    /// @dev only callable by the logic contract\n    /// @param _signer the signer-address of the in3-node, used as an identifier\n    /// @param _newOwner the new owner\n    /// @return true if successfull\n    function transferOwnership(address _signer, address _newOwner)\n        external\n        onlyLogicContract\n        returns (bool)\n    {\n        SignerInformation storage si = signerIndex[_signer];\n        emit LogOwnershipChanged(_signer, si.owner, _newOwner);\n\n        si.owner = _newOwner;\n        return true;\n    }\n\n    /// @notice removes a node from the registry\n    /// @dev only callable by the logic contract\n    /// @param _signer the signer of the in3-node\n    /// @return true if successfull\n    function unregisteringNode(address _signer)\n        external\n        onlyLogicContract\n        returns (bool)\n    {\n        SignerInformation storage si = signerIndex[_signer];\n        In3Node memory n = nodes[si.index];\n        _unregisterNodeInternal(si, n);\n        return true;\n    }\n\n    /// @notice updates a node by adding the msg.value to the deposit and setting the props or timeout\n    /// @dev reverts when trying to change the url to an already existing one\n    /// @dev only callable by the logic contract\n    /// @param _signer the signer-address of the in3-node, used as an identifier\n    /// @param _url the url, will be changed if different from the current one\n    /// @param _props the new properties, will be changed if different from the current onec\n    /// @param _weight the amount of requests per second the node is able to handle\n    /// @param _deposit the deposit of the in3-node\n    /// @return true if successfull\n    function updateNode(\n        address _signer,\n        string calldata _url,\n        uint192 _props,\n        uint64 _weight,\n        uint256 _deposit\n    ) external onlyLogicContract returns (bool) {\n        SignerInformation memory si = signerIndex[_signer];\n\n        In3Node storage node = nodes[si.index];\n\n        bytes32 newURL = keccak256(bytes(_url));\n        bytes32 oldURL = keccak256(bytes(node.url));\n\n        // the url got changed\n        if (newURL != oldURL) {\n            // make sure the new url is not already in use\n            require(!urlIndex[newURL].used, \"url is already in use\");\n\n            UrlInformation memory ui;\n            ui.used = true;\n            ui.signer = node.signer;\n            urlIndex[newURL] = ui;\n            node.url = _url;\n\n            // deleting the old entry\n            delete urlIndex[oldURL];\n        }\n\n        if (_deposit != node.deposit) {\n            node.deposit = _deposit;\n        }\n\n        if (_props != node.props) {\n            node.props = _props;\n        }\n\n        if (_weight != node.weight) {\n            node.weight = _weight;\n        }\n\n        node.proofHash = _calcProofHashInternal(node);\n\n        emit LogNodeUpdated(node.url, _props, _signer, node.deposit);\n\n        return true;\n    }\n\n    /// @notice returns the In3Node-struct of a certain index\n    /// @param _index the position of the NodeInfo in the node-array\n    /// @return the In3Node for the index provided\n    function getIn3NodeInformation(uint256 _index)\n        external\n        view\n        returns (In3Node memory)\n    {\n        return nodes[_index];\n    }\n\n    /// @notice returns the SignerInformation of a signer\n    /// @param _signer the signer for the information to get\n    /// @return the SignerInformation for the signer\n    function getSignerInformation(address _signer)\n        external\n        view\n        returns (SignerInformation memory)\n    {\n        return signerIndex[_signer];\n    }\n\n    /// @notice returns the In3Node-struct for a signer\n    /// @param _signer the signer for the information to get\n    /// @return the In3Node-struct for that signer\n    function getNodeInfromationBySigner(address _signer)\n        external\n        view\n        returns (In3Node memory)\n    {\n        return nodes[signerIndex[_signer].index];\n    }\n\n    /// @notice length of the nodelist\n    /// @return the number of total in3-nodes\n    function totalNodes() external view returns (uint256) {\n        return nodes.length;\n    }\n\n    /// @notice sets the signerInformation for a signer\n    /// @dev only callable by the logic contract\n    /// @dev gets used for updating the information after returning the deposit\n    /// @dev public-visibility due to passing a struct to the function\n    /// @param _signer the address for the information to be set\n    /// @param _si the new signerInformation\n    /// @return true when successfull\n    function adminSetSignerInfo(address _signer, SignerInformation memory _si)\n        public\n        onlyLogicContract\n        returns (bool)\n    {\n        signerIndex[_signer] = _si;\n        return true;\n    }\n\n    /// @notice calculates the sha3 hash of the most important properties in order to make the proof more efficient\n    /// @param _node the in3 node to calculate the hash from\n    /// @return the hash of the properties of an in3-node\n    function _calcProofHashInternal(In3Node memory _node)\n        internal\n        pure\n        returns (bytes32)\n    {\n        return\n            keccak256(\n                abi.encodePacked(\n                    _node.deposit,\n                    _node.registerTime,\n                    _node.props,\n                    _node.weight,\n                    _node.signer,\n                    _node.url\n                )\n            );\n    }\n\n    /// @notice Handles the setting of the unregister values for a node internally\n    /// @param _si information of the signer\n    /// @param _n information of the in3-node\n    function _unregisterNodeInternal(\n        SignerInformation storage _si,\n        In3Node memory _n\n    ) internal {\n        // solium-disable-next-line security/no-block-members\n        _si.lockedTime = uint64(block.timestamp + timeout); // solhint-disable-line not-rely-on-time\n        _si.depositAmount = _n.deposit;\n\n        _removeNodeInternal(_si.index);\n    }\n\n    /// @notice removes a node from the node-array\n    /// @param _nodeIndex the nodeIndex to be removed\n    function _removeNodeInternal(uint256 _nodeIndex) internal {\n        require(_nodeIndex < nodes.length, \"invalid node index provided\");\n        // trigger event\n        emit LogNodeRemoved(nodes[_nodeIndex].url, nodes[_nodeIndex].signer);\n        // deleting the old entry\n        delete urlIndex[keccak256(bytes(nodes[_nodeIndex].url))];\n        uint256 length = nodes.length;\n\n        assert(length > 0);\n\n        // we set the SignerIndex to an invalid index.\n        signerIndex[nodes[_nodeIndex].signer]\n            .index = 0xffffffffffffffffffffffffffffffffffffffffffffffffffffffffffffffff;\n\n        // move the last entry to the removed one.\n        In3Node memory m = nodes[length - 1];\n        nodes[_nodeIndex] = m;\n\n        SignerInformation storage si = signerIndex[m.signer];\n        si.index = _nodeIndex;\n        nodes.length--;\n    }\n}\n",
  "sourcePath": "/home/balajipachai/Desktop/mastering_ethereum/blockchains-full-stack-assignment/contracts/NodeRegistryData.sol",
  "compiler": {
    "name": "solc",
    "version": "0.5.10+commit.5a6ea5b1.Emscripten.clang"
  },
  "schemaVersion": "3.0.23",
  "updatedAt": "2020-07-14T19:18:54.413Z",
  "devdoc": {
    "methods": {
      "adminRemoveNodeFromRegistry(address)": {
        "params": {
          "_signer": "the signer-address of the in3-node"
        }
      },
      "adminSetLogic(address)": {
        "details": "used to update the corresponding logic contractonly callable by the current logic contract",
        "params": {
          "_newLogic": "the new logic-contract / owner"
        },
        "return": "true if successfull"
      },
      "adminSetNodeDeposit(address,uint256)": {
        "details": "only callable by the logic contractused to delete the deposit after being being convicted",
        "params": {
          "_newDeposit": "the new deposit",
          "_signer": "the signer for the node"
        },
        "return": "true if successfull"
      },
      "adminSetSignerInfo(address,(uint64,address,uint256,uint256,uint256))": {
        "details": "only callable by the logic contractgets used for updating the information after returning the depositpublic-visibility due to passing a struct to the function",
        "params": {
          "_si": "the new signerInformation",
          "_signer": "the address for the information to be set"
        },
        "return": "true when successfull"
      },
      "adminSetStage(address,uint256)": {
        "details": "only callable by the current logic contract",
        "params": {
          "_signer": "the signer-account for the stage to be set",
          "_stage": "the new stage"
        },
        "return": "true if successfull"
      },
      "adminSetSupportedToken(address)": {
        "details": "only callable by the current logic contract",
        "params": {
          "_newToken": "the new token-contract"
        },
        "return": "true if successfull"
      },
      "adminSetTimeout(uint256)": {
        "details": "only callable by the current logic contract",
        "params": {
          "_newTimeout": "the new timeout"
        },
        "return": "true if successfull"
      },
      "adminTransferDeposit(address,uint256)": {
        "details": "used when returning deposit or rewarding successfull convictsonly callable by the logic contract",
        "params": {
          "_amount": "the amount of tokens to be transfered",
          "_to": "the address that shall receive tokens"
        },
        "return": "true when successfull"
      },
      "constructor": {
        "details": "cannot be deployed in a genesis block"
      },
      "getIn3NodeInformation(uint256)": {
        "params": {
          "_index": "the position of the NodeInfo in the node-array"
        },
        "return": "the In3Node for the index provided"
      },
      "getNodeInfromationBySigner(address)": {
        "params": {
          "_signer": "the signer for the information to get"
        },
        "return": "the In3Node-struct for that signer"
      },
      "getSignerInformation(address)": {
        "params": {
          "_signer": "the signer for the information to get"
        },
        "return": "the SignerInformation for the signer"
      },
      "registerNodeFor(string,uint192,address,uint64,address,uint256,uint256)": {
        "details": "only callable by the logic contract",
        "params": {
          "_deposit": "the deposit of the in3-node (in erc20 token)",
          "_owner": "the owner of the node",
          "_props": "properties of the node",
          "_signer": "the signer of the in3-node",
          "_stage": "the stage of the in3-node",
          "_url": "the url of the node, has to be unique",
          "_weight": "how many requests per second the node is able to handle"
        },
        "return": "true if successfull"
      },
      "setConvict(bytes32,address)": {
        "params": {
          "_caller": "the address for that called convict in the logic-contract",
          "_hash": "keccak256(wrong blockhash, msg.sender, v, r, s); used to prevent frontrunning."
        }
      },
      "totalNodes()": {
        "return": "the number of total in3-nodes"
      },
      "transferOwnership(address,address)": {
        "details": "only callable by the logic contract",
        "params": {
          "_newOwner": "the new owner",
          "_signer": "the signer-address of the in3-node, used as an identifier"
        },
        "return": "true if successfull"
      },
      "unregisteringNode(address)": {
        "details": "only callable by the logic contract",
        "params": {
          "_signer": "the signer of the in3-node"
        },
        "return": "true if successfull"
      },
      "updateNode(address,string,uint192,uint64,uint256)": {
        "details": "reverts when trying to change the url to an already existing oneonly callable by the logic contract",
        "params": {
          "_deposit": "the deposit of the in3-node",
          "_props": "the new properties, will be changed if different from the current onec",
          "_signer": "the signer-address of the in3-node, used as an identifier",
          "_url": "the url, will be changed if different from the current one",
          "_weight": "the amount of requests per second the node is able to handle"
        },
        "return": "true if successfull"
      }
    },
    "title": "Registry for IN3-nodes"
  },
  "userdoc": {
    "methods": {
      "adminRemoveNodeFromRegistry(address)": {
        "notice": "removes an in3-node from the nodeList"
      },
      "adminSetLogic(address)": {
        "notice": "sets the logic-address / owner of the contract"
      },
      "adminSetNodeDeposit(address,uint256)": {
        "notice": "sets the deposit of the node"
      },
      "adminSetSignerInfo(address,(uint64,address,uint256,uint256,uint256))": {
        "notice": "sets the signerInformation for a signer"
      },
      "adminSetStage(address,uint256)": {
        "notice": "sets the stage of a certain signer"
      },
      "adminSetSupportedToken(address)": {
        "notice": "changes the supported token"
      },
      "adminSetTimeout(uint256)": {
        "notice": "sets a new timeout for all node until they can recive their deposit"
      },
      "adminTransferDeposit(address,uint256)": {
        "notice": "transfers tokens to an address"
      },
      "constructor": "constructor",
      "getIn3NodeInformation(uint256)": {
        "notice": "returns the In3Node-struct of a certain index"
      },
      "getNodeInfromationBySigner(address)": {
        "notice": "returns the In3Node-struct for a signer"
      },
      "getSignerInformation(address)": {
        "notice": "returns the SignerInformation of a signer"
      },
      "registerNodeFor(string,uint192,address,uint64,address,uint256,uint256)": {
        "notice": "registers a new node in the nodeList"
      },
      "setConvict(bytes32,address)": {
        "notice": "writes a value to te convictMapping to be used later for revealConvict in the logic contract"
      },
      "totalNodes()": {
        "notice": "length of the nodelist"
      },
      "transferOwnership(address,address)": {
        "notice": "changes the ownership of an in3-node"
      },
      "unregisteringNode(address)": {
        "notice": "removes a node from the registry"
      },
      "updateNode(address,string,uint192,uint64,uint256)": {
        "notice": "updates a node by adding the msg.value to the deposit and setting the props or timeout"
      }
    }
  }
}